:03000000020C9758
:10080000EC4D6011E8497017ED33EC3304600DE4F2
:10081000FCFFFEFD22E933E8330470F80209B01250
:10082000097B58046009E4CC248150062850090251
:1008300009BA2840030209B7C0E0EB4A7044B98006
:1008400006D0E0FB0209A6EF4E701CBD8008EBFF4E
:10085000EAFEE9FD80EBE98DF0A4FEE5F00208E98F
:10086000E9CDF9EAFEEBFFEF89F0A4FCE5F0CE89D3
:10087000F0A42EFFE435F0CD89F0A42DFEE435F090
:100880008067EF4E7005BD80D780C3EF8BF0A4ACBE
:10089000F0EE8BF0A42CFCE435F0F8EF8AF0A42CF9
:1008A000E5F038FCE433CB8DF0A42CFCE5F03BF80C
:1008B000EE8AF0A42CFCE5F038F8E433CF89F0A4FC
:1008C0002CFCE5F038CF3400CE89F0A42FFFE5F002
:1008D0003EFEE433C98DF0A42EFEE5F039CD8AF05A
:1008E000A42FFFE5F03EFEE43DFD33D0E0FB5007D2
:1008F0000BBB000F0209BAEC2CFCEF33FFEE33FE0A
:10090000ED33FD02099275F020800E75F010800520
:1009100075F0087D007E007F003392D530D503123C
:100920000A47EC334010EF33FFEE33FEED33FDECBE
:1009300033FCD5F0ED22E5F0247EA2D513CC92E76E
:10094000CDCEFF22EDD2E7CD33EC3392D5248140DA
:1009500006E4FFFEFDFC22FCE4CFCECDCC24E0502B
:100960001174FF80EDC3CC13CCCD13CDCE13CECFFD
:1009700013CF0470F030D5DE020A47E9D2E7C9335D
:10098000E833F892D5EDD2E7CD33EC33FC5002B228
:10099000D522EC30E7100FBF000C0EBE00080DBDD5
:1009A00000040BEB6014A2D5EB13FCED92E7FD22E3
:1009B00074FFFCFDFEFF22E480F8A2D574FF13FC57
:1009C0007D80E480EFBB010CE58229F582E5833A66
:1009D000F583E0225006E92582F8E622BBFE06E90F
:1009E0002582F8E222E58229F582E5833AF583E45F
:1009F0009322BC000BBE0029EF8DF084FFADF022E6
:100A0000E4CCF875F008EF2FFFEE33FEEC33FCEE8C
:100A10009DEC984005FCEE9DFE0FD5F0E9E4CEFD7F
:100A200022EDF8F5F0EE8420D21CFEADF075F00852
:100A3000EF2FFFED33FD4007985006D5F0F222C3AB
:100A400098FD0FD5F0EA22C3E49FFFE49EFEE49DEB
:100A5000FDE49CFC22120B1F120CA3E4FF120BA559
:100A60008F08AC08E41209107B487AE1799C784140
:100A70001208001209448E098F0AE50875F0648493
:100A80002430FB7D017F01120C5EE50875F0648463
:100A9000E5F075F00A842430FF120C87E50875F044
:100AA0000A84E5F02430FF120C87AE09AF0A7C03FC
:100AB0007DE81209F2EF2430FB7D017F02120C5E0B
:100AC0007F2E120C87AE09AF0A7C037DE81209F273
:100AD0007E007F64CFCDCFCECCCE1209F2EF243092
:100AE000FF120C87AE09AF0A7C007D641209F27E0A
:100AF000007F0ACFCDCFCECCCE1209F2EF2430FF4B
:100B0000120C87AE09AF0A7C007D0A1209F2ED24AF
:100B100030FF120C877FF47E01120BC7020A5BC202
:100B200080C2817F147E00120BC77F03120C4DD24E
:100B300081C2817F057E00120BC77F03120C4DD24C
:100B400081C2817F64120CAA7F03120C4DD281C234
:100B5000817F017E00120BC77F02120C4DD281C231
:100B6000811F7E00120BC77F28120BE77F0C120B30
:100B7000E77F01120BE77F06020BE78B128A1389CE
:100B800014EF75F008A42440FF120BE7E4FDAB124C
:100B9000AA13A9148D827583001209C5FF120C8750
:100BA0000DBD08EA22EF1392A0EFA2E192A1A2E20A
:100BB00092A2D2A3D2A4C2A3C2A420A5FD30A5FDB7
:100BC000D2A6AFB0C2A622E4FDFCC3ED9FEC9E50BE
:100BD00015E4FBFA0BBB00010AEB647B4A70F50DD0
:100BE000BD00010C80E422AE07C280120C46D28107
:100BF000C281EF24FE60030470077F027E00020BB7
:100C0000C77F25120CAA228B0C8A0D890EE4FDAB3E
:100C10000CAA0DA90E8D827583001209C5FF60060E
:100C2000120C870D80E9228B0F8A108911BF0104F5
:100C30007F8080027FC0ED142FFF120BE7AB0FAA5D
:100C400010A911020C07120C75D281C281EFA2E328
:100C50009287A2E29286A2E19285139284228B0B64
:100C6000BF01047F8080027FC0ED142FFF120BE7CD
:100C7000AF0B020C87EF339287EFA2E69286A2E5D4
:100C80009285A2E4928422AE07D280120C46D281D1
:100C9000C2817F29020CAA787FE4F6D8FD75811401
:100CA000020A55C2A4C2A3C2A622AE071FEE70FA62
:010CB0002221
:00000001FF
