:03000000020C806F
:10080000EC4D6011E8497017ED33EC3304600DE4F2
:10081000FCFFFEFD22E933E8330470F80209B01250
:10082000097B58046009E4CC248150062850090251
:1008300009BA2840030209B7C0E0EB4A7044B98006
:1008400006D0E0FB0209A6EF4E701CBD8008EBFF4E
:10085000EAFEE9FD80EBE98DF0A4FEE5F00208E98F
:10086000E9CDF9EAFEEBFFEF89F0A4FCE5F0CE89D3
:10087000F0A42EFFE435F0CD89F0A42DFEE435F090
:100880008067EF4E7005BD80D780C3EF8BF0A4ACBE
:10089000F0EE8BF0A42CFCE435F0F8EF8AF0A42CF9
:1008A000E5F038FCE433CB8DF0A42CFCE5F03BF80C
:1008B000EE8AF0A42CFCE5F038F8E433CF89F0A4FC
:1008C0002CFCE5F038CF3400CE89F0A42FFFE5F002
:1008D0003EFEE433C98DF0A42EFEE5F039CD8AF05A
:1008E000A42FFFE5F03EFEE43DFD33D0E0FB5007D2
:1008F0000BBB000F0209BAEC2CFCEF33FFEE33FE0A
:10090000ED33FD02099275F020800E75F010800520
:1009100075F0087D007E007F003392D530D503123C
:100920000A47EC334010EF33FFEE33FEED33FDECBE
:1009300033FCD5F0ED22E5F0247EA2D513CC92E76E
:10094000CDCEFF22EDD2E7CD33EC3392D5248140DA
:1009500006E4FFFEFDFC22FCE4CFCECDCC24E0502B
:100960001174FF80EDC3CC13CCCD13CDCE13CECFFD
:1009700013CF0470F030D5DE020A47E9D2E7C9335D
:10098000E833F892D5EDD2E7CD33EC33FC5002B228
:10099000D522EC30E7100FBF000C0EBE00080DBDD5
:1009A00000040BEB6014A2D5EB13FCED92E7FD22E3
:1009B00074FFFCFDFEFF22E480F8A2D574FF13FC57
:1009C0007D80E480EFBB010CE58229F582E5833A66
:1009D000F583E0225006E92582F8E622BBFE06E90F
:1009E0002582F8E222E58229F582E5833AF583E45F
:1009F0009322BC000BBE0029EF8DF084FFADF022E6
:100A0000E4CCF875F008EF2FFFEE33FEEC33FCEE8C
:100A10009DEC984005FCEE9DFE0FD5F0E9E4CEFD7F
:100A200022EDF8F5F0EE8420D21CFEADF075F00852
:100A3000EF2FFFED33FD4007985006D5F0F222C3AB
:100A400098FD0FD5F0EA22C3E49FFFE49EFEE49DEB
:100A5000FDE49CFC22120B1A120C608F08AC08E417
:100A60001209107B487AE1799C784112080012093A
:100A7000448E098F0AE50875F064842430FB7D01FB
:100A80007F01120C37E50875F06484E5F075F00A13
:100A9000842430FF120C70E50875F00A84E5F02418
:100AA00030FF120C70AE09AF0A7C037DE81209F228
:100AB000EF2430FB7D017F02120C377F2E120C7069
:100AC000AE09AF0A7C037DE81209F27E007F64CF95
:100AD000CDCFCECCCE1209F2EF2430FF120C70AE87
:100AE00009AF0A7C007D641209F27E007F0ACFCD37
:100AF000CFCECCCE1209F2EF2430FF120C70AE092B
:100B0000AF0A7C007D0A1209F2ED2430FF120C704E
:100B10007FF47E01120BA0020A58C280C2817F14AA
:100B20007E00120BA07F03120C26D281C2817F05AA
:100B30007E00120BA07F03120C26D281C2817F643B
:100B4000120C8C7F03120C26D281C2817F017E00A1
:100B5000120BA07F02120C26D281C2811F7E0012CE
:100B60000BA07F28120BC07F0C120BC07F01120B51
:100B7000C07F06020BC08B128A138914EF75F00830
:100B8000A42440FF120BC0E4FDAB12AA13A9148DDC
:100B9000827583001209C5FF120C700DBD08EA2290
:100BA000E4FDFCC3ED9FEC9E5015E4FBFA0BBB008B
:100BB000010AEB647B4A70F50DBD00010C80E42254
:100BC000AE07C280120C1FD281C281EF24FE6003E7
:100BD0000470077F027E00020BA07F25120C8C227E
:100BE0008B0C8A0D890EE4FDAB0CAA0DA90E8D822B
:100BF0007583001209C5FF6006120C700D80E92292
:100C00008B0F8A108911BF01047F8080027FC0EDA5
:100C1000142FFF120BC0AB0FAA10A911020BE01288
:100C20000C4ED281C281EFA2E39287A2E29286A209
:100C3000E19285139284228B0BBF01047F80800296
:100C40007FC0ED142FFF120BC0AF0B020C70EF33FF
:100C50009287EFA2E69286A2E59285A2E492842290
:100C6000C2B0C2B2D2B220B3FDC2B1AFA0D2B122E3
:100C7000AE07D280120C1FD281C2817F29020C8C58
:100C8000787FE4F6D8FD758114020A55AE071FEE91
:030C900070FA22D5
:00000001FF
