:100800001208CC7D55E4FFFE12082C7FF47E011205
:1008100008577D017F017E0012082C7FF47E0112B3
:0C0820000857E4FFFE1208778F9080FE5E
:10082C008E088F098D0AC2A37F06120892D2A3C22A
:10083C00A37F02120892E508FF120892AF09E5099E
:0B084C00120892AF0A120892D2A322F9
:0708CC00D2A3C2A0D2A222B8
:1008AB00E4FEEF25E0FFD2A030A203430701C2A074
:0408BB000EBE08EE77
:0108BF002216
:10089200E4FEEF30E704D2A18002C2A1D2A0EF258C
:0808A200E0FFC2A00EBE08EA4F
:0108AA00222B
:04087700AD07AC0617
:10087B00C2A37F03120892AF04120892AF051208AD
:06088B0092120000D2A34E
:010891002244
:10085700E4FDFCC3ED9FEC9E5015E4FBFA0BBB00D7
:0F086700010AEB647B4A70F50DBD00010C80E4C3
:01087600225F
:030000000208C033
:0C08C000787FE4F6D8FD75810A0208007C
:00000001FF
