:10082D0012089620900F7F147E001208567F011239
:10083D0008B33090FD2091EB7F147E00120856E432
:09084D00FF1208B32091DC80FBCE
:10085600E4FDFCC3ED9FEC9E5015E4FBFA0BBB00D8
:0F086600010AEB647B4A70F50DBD00010C80E4C4
:010875002260
:10089600C29FD29E758920758DFDD28ED299D29C2B
:0108A600222F
:0808B3003099FDC2998F9922D2
:060876008B088A09890AC3
:10087C00E4FEAB08AA09A90A8E827583001208004F
:09088C00FF60061208B30E80E9BA
:010895002240
:0308C000A29822D9
:0508BB00C298AF992274
:030000000208A74C
:0C08A700787FE4F6D8FD75810A02082D68
:10080000BB010CE58229F582E5833AF583E02250AD
:1008100006E92582F8E622BBFE06E92582F8E222F7
:0D082000E58229F582E5833AF583E4932211
:00000001FF
