:10086D0012087FE4F5901208A950FB1208A48F908E
:02087D0080F405
:10082D00E4FDFCC3ED9FEC9E5015E4FBFA0BBB0001
:0F083D00010AEB647B4A70F50DBD00010C80E4ED
:01084C002289
:10087F00C29FD29E758920758DFDD28ED299D29C42
:01088F002246
:08089C003099FDC2998F9922E9
:06084D008B088A09890AEC
:10085300E4FEAB08AA09A90A8E8275830012080078
:09086300FF600612089C0E80E9FA
:01086C002269
:0308A900A29822F0
:0508A400C298AF99228B
:0300000002089063
:0C089000787FE4F6D8FD75810A02086D3F
:10080000BB010CE58229F582E5833AF583E02250AD
:1008100006E92582F8E622BBFE06E92582F8E222F7
:0D082000E58229F582E5833AF583E4932211
:00000001FF
