:10080000750A0F750BFF1208A543085053087FE5C2
:100810000A2508F508E50BF509C2A3AF0812085B25
:10082000AF0912085BD2A3E50B150B7002150AE5A0
:100830000B450A7006750A0F750BFF4308505308E5
:100840007FE50A2508F508E50BF509C2A3AF0812F4
:0B085000085BAF0912085BD2A380CC4C
:0508A500D2A3C2A22253
:10085B00E4FDFCEF20E704C2A08002D2A0D2A2C22A
:10086B00A2EF25E0FF0DBD00010CED64084C70E319
:01087B00225A
:10087C00E4FDFCEF25E0FFD2A230A103430701C247
:0C088C00A20DBD00010CED64084C70E7EB
:01089800223D
:030000000208995A
:0C089900787FE4F6D8FD75810B020800A2
:00000001FF
