:030000000209CD25
:03000B000209984F
:1008000075F008758200EF2FFFEE33FECD33CDCCAF
:1008100033CCC58233C5829BED9AEC99E582984032
:100820000CF582EE9BFEED9AFDEC99FC0FD5F0D60F
:10083000E4CEFBE4CDFAE4CCF9A88222B800C1B939
:100840000059BA002DEC8BF084CFCECDFCE5F0CB77
:10085000F97818EF2FFFEE33FEED33FDEC33FCEBB0
:1008600033FB10D703994004EB99FB0FD8E5E4F96B
:10087000FA227818EF2FFFEE33FEED33FDEC33FC58
:10088000C933C910D7059BE99A4007EC9BFCE99A4C
:10089000F90FD8E0E4C9FAE4CCFB2275F010EF2F91
:1008A000FFEE33FEED33FDCC33CCC833C810D70791
:1008B0009BEC9AE899400AED9BFDEC9AFCE899F8CC
:1008C0000FD5F0DAE4CDFBE4CCFAE4C8F922E86015
:1008D00010ECA2E713FCED13FDEE13FEEF13FFD8AF
:1008E000F022EC8EF0A4CCC5F0CCCDF8EFA4CEC5B0
:1008F000F02DFDE43CFCE8A42EC8C5F03DFDE43C31
:10090000FCEFA4FFE5F028FEE43DFDE43CFC22EF13
:100910007005C2A0C2A922BF6405D2A0C2A922ACA0
:1009200014AD157E001208E2E47B64FAF9F81208AF
:100930003C8E0E8F0FC3E515950FF509E514950E46
:10094000F508AB07AA06E4C39BFFE49AFE74019482
:1009500000FDE49400FC78081208CE8E108F11E49C
:10096000C39BFFE4F5128F13AE08AF09AB07AA06CD
:10097000C39BFFE49AFE74019400FDE49400FC78AC
:10098000081208CE8E0A8F0BE4C39BFFE4F50C8F90
:100990000D85118C85138A22B2A020A007850B8CAF
:1009A000850D8A3285118C85138A32D2A05389F045
:1009B000438901D2A9D2AF8E148F15227FE87E031E
:1009C0001209AB7F6412090F1209D980FE787FE407
:0F09D000F6D8FD7581150209BCD28C22C28C228B
:00000001FF
