:0408A7006162630027
:10087900758920758BFD758DFDC29FD29ED29CD244
:020889008E22BD
:080897008F993099FDC29922EE
:07089F003098FDC298AF99EB
:0108A600222F
:060800008B088A09890A39
:10080600E4FDFCAB08AA09A90A8D828C8312082E86
:1008160060150DEDAE0470010C14F5828E8312087E
:070826002EFF12089780DC91
:01082D0022A8
:10085B001208797BFF7A0879A71208007F411208EA
:0E086B009712089FBF61FA7F6212089780F310
:0300000002088B68
:0C088B00787FE4F6D8FD75810A02085B56
:10082E00BB010CE58229F582E5833AF583E022507F
:10083E0006E92582F8E622BBFE06E92582F8E222C9
:0D084E00E58229F582E5833AF583E49322E3
:00000001FF
