:0C0A610050726573732061206B65790092
:100A320010093738392F343536783132332D20309A
:020A42003D2B4A
:100800007590F07590F08590085308F0E50864F055
:1008100070F17F147E001209D5E59054F0F508645C
:10082000F060EF7F017E001209D5E59054F0F508E5
:1008300064F060DE7590FEE59054F0F50864F060B9
:1008400005E4F51980347590FDE59054F0F50864E1
:10085000F0600575190180227590FBE59054F0F564
:100860000864F0600575190280107590F7E59054E2
:10087000F0F50864F060BD751903E508FD7C0064BF
:10088000E0700AE51925E025E024098028ED64D010
:100890004C700AE51925E025E0240A8018E5086473
:1008A000B0700AE51925E025E0240B8008E519253C
:0908B000E025E0240CF8E6FF222B
:100A15001209F57BFF7A0A7961E4FD7F0112094528
:0D0A25007FC0120A45120800120A5380F328
:0809CD00C2B1D2B27F017E002D
:1009D500E4FDFCC3ED9FEC9E5015E4FBFA0BBB0058
:0F09E500010AEB64704A70F50DBD00010C80E44F
:0109F40022E0
:0E0A45008FA0C2B01209CDC2B27F030209D544
:0E0A53008FA0D2B01209CDC2B27F030209D526
:0609A2008B1F8A20892151
:1009A800E4F522F523AB1FAA20A9218523828522FD
:1009B80083120975FF600D120A530523E52370E5BC
:0409C800052280E1A3
:0109CC002208
:100945008F1A8D1B8B1C8A1D891EEF64017008E5AB
:100955001B540F4480800CE51A6402700AE51B5491
:100965000F44C0FF120A45AB1CAA1DA91E0209A20D
:1009F5007F327E001209D57F38120A457F0C120A14
:100A0500457F01120A457F06120A457F80020A4585
:030000000208B93A
:0C08B900787FE4F6D8FD75812302090069
:10097500BB010CE58229F582E5833AF583E0225037
:1009850006E92582F8E622BBFE06E92582F8E22281
:0D099500E58229F582E5833AF583E493229B
:1008C500020A15E493A3F8E493A34003F68001F22A
:1008D50008DFF48029E493A3F85407240CC8C33334
:1008E500C4540F4420C8834004F456800146F6DF03
:1008F500E4800B0102040810204080900A32E47E57
:10090500019360BCA3FF543F30E509541FFEE493F7
:10091500A360010ECF54C025E060A840B8E493A3BE
:10092500FAE493A3F8E493A3C8C582C8CAC583CAE9
:10093500F0A3C8C582C8CAC583CADFE9DEE780BEA1
:010A440000B1
:00000001FF
