:0300000002096B87
:10080000AB07AA067C277D101208CE8F0C7C277DB3
:1008100010AF03AE021208CEAA04AB057C037DE83C
:10082000AF03AE021208CE8F0D7C037DE8AF03AE9E
:10083000021208CEAA04AB057C007D64AF03AE02B1
:100840001208CE8F0E7C007D64AF03AE021208CE7C
:10085000AA04AB057C007D0AAF03AE021208CE8F5E
:100860000FAE02AF037C007D0A1208CE8D10E50C9E
:1008700090097793F580C2A47F017E0012094BD2C4
:10088000A4E50D90097793F580C2A37F017E001245
:10089000094BD2A3E50E90097793F580C2A27F01A0
:1008A0007E0012094BD2A2E50F90097793F580C222
:1008B000A17F017E0012094BD2A1E5109009779328
:1008C000F580C2A07F017E0012094BD2A022BC009D
:1008D0000BBE0029EF8DF084FFADF022E4CCF8755B
:1008E000F008EF2FFFEE33FEEC33FCEE9DEC98406A
:1008F00005FCEE9DFE0FD5F0E9E4CEFD22EDF8F506
:10090000F0EE8420D21CFEADF075F008EF2FFFED65
:1009100033FD4007985006D5F0F222C398FD0FD55D
:10092000F0EA225389F0438905D28C858A08858CA8
:1009300009750A0085090BE50B750B00F50AE5083A
:10094000420BAF0BAE0A12080080E0E4FDFCC3EDE1
:100950009FEC9E5015E4FBFA0BBB00010AEB647B95
:100960004A70F50DBD00010C80E422787FE4F6D8D2
:10097000FD758110020923C0F9A4B0999282F88014
:0109800090E6
:00000001FF
