:030000000208945F
:10080000BB010CE58229F582E5833AF583E02250AD
:1008100006E92582F8E622BBFE06E92582F8E222F7
:10082000E58229F582E5833AF583E49322E4FDFC31
:10083000C3ED9FEC9E5015E4FBFA0BBB00010AEBE5
:10084000647B4A70F50DBD00010C80E4228B088AA0
:1008500009890AE4FEAB08AA09A90A8E82758300F9
:10086000120800FF60061208AA0E80E9221208830F
:100870001208A0EF24CF60070470F5B2A080F1B297
:10088000A180EDC29FD29E758920758DFDD28ED23A
:1008900099D29C22787FE4F6D8FD75810A02086D12
:1008A0003098FDAF99C2987E00223099FDC2998F91
:0A08B0009922C298AF9922A2982263
:00000001FF
