:0300000002088F64
:10080000300011D2CA7F017E00120852C2CAD290B3
:100810007F03800FD2CA7F037E00120852C2CAD261
:10082000907F017E0012085222E4F508F5C875C9D0
:100830000275CBFF75CAB175CDFF75CCB17F0112C2
:100840000872AF0812087205087F0A7E001208526B
:1008500080F0E4FDFCC3ED9FEC9E5015E4FBFA0B29
:10086000BB00010AEB647B4A70F50DBD00010C80F2
:10087000E4228F09E4F50AE509339200120800E545
:100880000925E0F509050AE50AC3940840E922783C
:0B0890007FE4F6D8FD758120020829E6
:00000001FF
