:0A015600C0F9A4B0999282F88090DD
:0600DC00C2907F067E00C9
:1000E200C3E49FFFE49EF58CEFF58AD28C308DFD40
:0400F200C28CC28D6D
:0100F60022E7
:10007E00E4FDFCC3ED9FEC9E5015E4FBFA0BBB00B8
:0F008E00010AEB647C4A70F50DBD00010C80E4A3
:01009D002240
:10009E00C2907FE07E011200E2D2907F461E1200D7
:0E00AE00E2A290E433FD7F9A0E1200E2AF054D
:0100BC002221
:0A0142001200DCD2907F400200E2C0
:10012600C2907F3C7E001200E2D2907F0A0200E27B
:0A014C00BF01030201421201262246
:10010F001200DCD2907F091200E2A290E433FD7F4F
:06011F00371200E2AF05FB
:0101250022B7
:0200F700AD0753
:1000F9007C08AF041CEF600DED5401FF12014CEDBB
:05010900C313FD80EDB1
:01010E0022CE
:1000BD007C08E4FBAF041CEF6012EBC313FB1201D1
:0E00CD000FEFC43333335480420380E8AF0397
:0100DB002202
:1000030043890112009EEF70FA7FCC1200F77F4400
:100013001200F77FEE7E0212007E12009EEF70FA4E
:100023007FCC1200F77FBE1200F71200BD750800E7
:100033008F091200BDEFFEEE4208E508C4F854F044
:10004300C8E509C4540F48FD75F00A84F9ED75F04D
:100053000A84ACF0E509540F75F00AA4FFE5F0C477
:10006300F854F0C8EFC4540F48FFE990015693F5D4
:0B00730080EC93F5A0EF93F5B08088BF
:03000000020136C4
:0C013600787FE4F6D8FD75810902000313
:00000001FF
