:1000000002082312085212080712061875300075EC
:10001000310075322275330075340075352375361D
:10002000007537007538247B007A00792112039C13
:10003000E529652360D6852329E52175F00A842406
:1000400030FB7D057F011207B8E52175F00A84E5D4
:10005000F02430FF1207F77F3A1207F7E52275F018
:100060000A842430FF1207F7E52275F00A84E5F0D0
:100070002430FF1207F77F3A1207F7E52375F00ADD
:10008000842430FF1207F7E52375F00A84E5F02495
:1000900030FF1207F7753000753100753226753361
:1000A00000753400753527753600753700753828AA
:1000B0007B007A00792512047A20B0030201517B7B
:1000C000FF7A0679907D017F02120768E52575F0B9
:1000D00003A424A9F582E43406F583E493FB7401B8
:1000E00093FA740293F97D027F021207687F20124F
:1000F00007F7E52675F00A842430FF1207F7E52696
:1001000075F00A84E5F02430FF1207F77F2F1207FD
:10011000F7E52775F00A842430FF1207F7E5277505
:10012000F00A84E5F02430FF1207F77BFF7A0679A6
:10013000A1120748E52875F00A842430FF1207F75A
:10014000E52875F00A84E5F02430FF1207F7020075
:100150000C75300075310075322A75330075340026
:1001600075352B75360075370075382CAB28AD27E3
:10017000AF2612022D7BFF7A0679A57D017F021240
:100180000768E52A75F00A842430FF1207F7E52A8C
:1001900075F00A84E5F02430FF1207F77F2F12076D
:1001A000F7E52B75F00A842430FF1207F7E52B756D
:1001B000F00A84E5F02430FF1207F77F2F1207F7CB
:1001C000E52824D0FFE43407FE7C037DE81205C354
:1001D000EF2430FF1207F7E52824D0FFE43407FEB0
:1001E0007C007D641205C37C007D0A1205C3ED24EA
:1001F00030FF1207F7E52824D0FFE43407FE7C0027
:100200007D0A1205C37C007D0A1205C3ED2430FF70
:100210001207F7E52824D0FFE43407FE7C007D0AAE
:100220001205C3ED2430FF1207F702000C8F2D8D4D
:100230002E8B2FE52F75F00CA47C002DFFEC35F0F4
:10024000FEEF25E0FDEE33FC74552DF58274083C7D
:10025000F583E493F53D740193F53EAE3DAF3EEF7B
:10026000541FF539AE3DAF3EEF7805CEC313CE1324
:10027000D8F9540FF53AAE3DAF3EEEC31354012406
:100280001DF53BAE3DAF3EEE13135401F53C7457E4
:100290002DF58274083CF583E493F53D740193F5E4
:1002A0003EAE3DAF3EEF541FFDAE3DAF3EEF780595
:1002B000CEC313CE13D8F9540FFFE539653B7061F7
:1002C000ED6402705CE52DB4010DAB30AA31A932AA
:1002D000E53912058F802AE52DB41F15AB30AA3100
:1002E000A932740112058FAB33AA34A935EF02038A
:1002F00072E52D14AB30AA31A93212058FE53C60AE
:100300000AAB33AA34A935E53A8067E53AB40C0460
:100310007F018004E53A04FFAB33AA34A935EF80AE
:1003200051E52D253914AB30AA31A93212058FAB16
:1003300030AA31A932120549FFD3953B500AAB339D
:10034000AA34A935E53A802AAB30AA31A932C3EFE5
:10035000953B12058FE53A04C3953CAB33AA34A90B
:100360003512058FAB33AA34A935120549B40D05F2
:10037000740112058FAB33AA34A935120549FFE584
:100380002EC39F400AAB36AA37A938E52F8009E56E
:100390002F14AB36AA37A93812058F228B2D8A2E3F
:1003A000892F1208367FD01207CFE4FF1207CF1231
:1003B00008367FD11207CFD2011206E58F3BD2015A
:1003C0001206E58F3AC2011206E58F3912084B5327
:1003D0003B7FE53BC4540F75F00AA4FFE53B540F87
:1003E0002FAB33AA34A93512058F533A7FE53AC4AF
:1003F000540F75F00AA4FFE53A540F2FAB30AA3121
:10040000A93212058FE53930E633AB36AA37A93861
:10041000740C12058FE53930E504D2008002C20069
:1004200053391FE539C4540F75F00AA4FFE5395458
:100430000F2FAB2DAA2EA92F12058F803AAB36AA0B
:1004400037A938741812058F53393FE539C4540F52
:1004500075F00AA4FFE539540F2FAB2DAA2EA92F52
:1004600012058FAB2DAA2EA92F120549C3940C504B
:1004700004C2008002D200A200228B2D8A2E892F76
:100480001208367FD01207CF7F031207CF1208362B
:100490007FD11207CFD2011206E5AB2DAA2EA92FCC
:1004A000EF12058FD2011206E5AB30AA31A932EF67
:1004B00012058FD2011206E5AB33AA34A935EF122B
:1004C000058FC2011206E5AB36AA37A938EF12052F
:1004D0008F12084BAB2DAA2EA92F120549540712D3
:1004E000058FAB30AA31A932120549543F12058F4E
:1004F000AB30AA31A932120549FFC4540F75F00A76
:10050000A4FEEF540F2E12058FAB33AA34A9351277
:100510000549541F12058FAB33AA34A9351205497A
:10052000FFC4540F75F00AA4FEEF540F2E12058F6E
:10053000AB36AA37A938120549FFC4540F75F00A23
:10054000A4FEEF540F2E02058FBB010689828A8319
:10055000E0225002E722BBFE02E32289828A83E482
:100560009322BB010CE58229F582E5833AF583E00D
:10057000225006E92582F8E622BBFE06E92582F82C
:10058000E222E58229F582E5833AF583E49322BBF2
:10059000010689828A83F0225002F722BBFE01F312
:1005A00022F8BB010DE58229F582E5833AF583E85F
:1005B000F0225006E92582C8F622BBFE05E9258215
:1005C000C8F222BC000BBE0029EF8DF084FFADF015
:1005D00022E4CCF875F008EF2FFFEE33FEEC33FC8D
:1005E000EE9DEC984005FCEE9DFE0FD5F0E9E4CEC3
:1005F000FD22EDF8F5F0EE8420D21CFEADF075F092
:1006000008EF2FFFED33FD4007985006D5F0F2229A
:10061000C398FD0FD5F0EA22C2A0C2A27F147E00CB
:100620001207087F031207A7D2A2C2A27F057E008D
:100630001207087F031207A7D2A2C2A27F64120882
:100640002F7F031207A7D2A2C2A27F017E0012074A
:10065000087F021207A7D2A2C2A21F7E00120708BB
:100660007F281207287F0C1207287F011207287F96
:100670000602072853554E004D4F4E005455450075
:1006800057454400544855004652490053415400D0
:10069000202020202020202020202020202020205A
:1006A000002F3230004C554E41523A00FF0674FF85
:1006B0000678FF067CFF0680FF0684FF0688FF069B
:1006C0008C8F2D1208367FD01207CFAF2D1207CF97
:1006D0001208367FD11207CFC2011206E58F2E1203
:1006E000084BAF2E22E4FFFED291D290EF25E0FF1F
:1006F000309103430701C2900EBE08EC3001051291
:10070000083D800312084422E4FDFCC3ED9FEC9EEB
:100710005015E4FBFA0BBB00010AEB647B4A70F551
:100720000DBD00010C80E422AE07C2A01207A0D2CA
:10073000A2C2A2EF24FE60030470077F027E0002C3
:1007400007087F2512082F228B308A318932E4FD79
:10075000AB30AA31A9328D82758300120562FF6029
:10076000061207F70D80E9228B2D8A2E892FBF01F3
:10077000047F8080027FC0ED142FFF120728AB2D6D
:10078000AA2EA92F0207488F2D8D2E1208367FD052
:100790001207CFAF2D1207CFAF2E1207CF02084B93
:1007A0001207E5D2A2C2A2EFA2E392A7A2E292A60A
:1007B000A2E192A51392A4228B2DBF01047F808019
:1007C000027FC0ED142FFF120728AF2D0207F7E4B8
:1007D000FEEF339291D290C290EF25E0FF0EBE085B
:1007E000F012081622EF3392A7EFA2E692A6A2E536
:1007F00092A5A2E492A422AE07D2A01207A0D2A290
:10080000C2A27F2902082FE4FF1206C1AD075305DB
:100810007FE4FF020787D291D290A2919201C29009
:10082000A20122787FE4F6D8FD75813E020003AE76
:10083000071FEE70FA22D290C291C29022C291D2CA
:1008400090C29022D291D290C29022C291D290D2E4
:100850009122D290D291221B79099A1A3A125B18EE
:100860007B109D1ABE18E21304192413461B661947
:100870008702291A4710681A89108A1AAB18CC10F7
:10088000EE1B0F11301B51197203941A32125318B8
:1008900073129518B51AD710F81919133B195B1B69
:1008A0007D00211A3D125E188112A218C21AE411AD
:1008B000051926134819681B8A082B1A4B104C1A65
:1008C0006D128E18AE1AD010F11B1211331B541971
:1008D000750397183512571877129918B91ADB1241
:1008E000FC191C133E196119820224184212641863
:1008F0008410A61AC71AE810E91B0A132B194B1B00
:100900006D018E1A2D104E1A6F109018B11AD31057
:10091000F41B1513361B5619770B991A38105918F2
:100920007A129C18BC18E111021B2311441B651B91
:1009300086022718451267188712A918A918CB1222
:10094000ED190D132F194F1B7103921A3010511A04
:100950007210931AB418D510F71B1811391B5A19B5
:100960007B039D1A3B105C1A7D129E18C118E21180
:10097000041B2511461B6719880A2A1849126B1A8D
:100980008B108C1AAD18CE12F01910133219521B9D
:100990007401951A3410551A7610971AB81AD9108E
:1009A000FA1B1B113C1B5D19810022184110621AB1
:1009B0008310A41AC518E613081B2811291B4A190D
:1009C0006B038D182B124D186D108F1AB018D112A1
:1009D000F31B13133419541B7609971A3710581A3E
:1009E00079109A18BB1ADD11011B2111421B631BE0
:1009F0008400251A4410651A8610A718C81ACA1050
:100A0000EB1B0C112D1B4E1B6F0390182E12501850
:100A100070129218B218D412F6191611381B591BFD
:100A20007A039B1839125B1A7B109C1ABD18E113CC
:100A300003192311451B661B8708281A4812691AD7
:100A400089108A1AAB18CC10EE1B0F113019511BEC
:100A5000730394183212541A7410951AB618D712D8
:100A6000F91919133B195B1B7D00211A3D10611AFE
:100A70008112A31AC318E413061926134819681B18
:100A80008A002B1A4A104B186C128E1AAE18CF120D
:100A9000F11B1111321B5319740B9618351257188C
:100AA0007710991ABA18DB12FD1B1D11411B611931
:100AB00082022418421264188410A61AC718C81299
:100AC000EA190A132C1B4C1B6D018E1A2D104E1A9D
:100AD0006F109018B11AD310F4191513371B571B48
:100AE0007801991A3812591879129B18BB18DD131E
:100AF00001192213441B6419850A271A4612671824
:100B00008712A918A918CB12ED190D112F1B501B14
:100B10007101921A3112521872129418B41AD61026
:100B2000F71B181139195A1B7C019D1A3C125D18CC
:100B30007D12A11AC11AE311041B2511461B671966
:100B400088002A1A49106A1A6B128C18AC1ACE1235
:100B5000EF190F133119511B7309941834125618D9
:100B600076129818B81ADA12FB191B133D1B5D197F
:100B700081002218411062188312A518C51AE711C6
:100B8000081B29134A1B6A196B038D182B124D1869
:100B90006D108F1AB018D110F31B1413351B551993
:100BA0007603981A3610571A78109918BA1ADC106A
:100BB000FD1921134219621B840A251A4410651A73
:100BC0008610A718C81ACA10EB190C132E194E1B41
:100BD0007003911A2F10501A71129218B218D41271
:100BE000F6191611381B59197A039C1A3A105B1A18
:100BF0007C129D18BD1AE11303192311451B6619B8
:100C00008702291A4710681A8912AA18AA1ACC1042
:100C1000ED1B0E112F19501B7209931A3310541A21
:100C200075129618B61AD810F91B1A133B195B1BCC
:100C30007D0021183D12611A8210A31AC418E51311
:100C4000071B27134819681B8A002B1A4A104B18D8
:100C50006C128E18AE1AD010F11B12133319531BDD
:100C600075039618341256187610981AB918DA10B7
:100C7000FC1B1D133E19611B820A231842126418C3
:100C80008410A61AC718E810EA1B0B112C1B4D1B69
:100C90006E038F1A2D104E1A6F109018B11AD310C0
:100CA000F41915133719571B79039A1A3810591A62
:100CB0007A109B1ABC18DD13011922134419641B06
:100CC000860227184512671A8710A81AA918CA128F
:100CD000EC190C112E1B4F19700B92183112531A6C
:100CE0007310941AB51AD610F71B181139195A1B1C
:100CF0007C019D1A3C105D1A7E12A21AC218E313E1
:100D000005192513471B671988002A1A49106A1A02
:100D10006B108C1AAD18CE12F01B1011311B521B28
:100D2000730194183312551875129718B718D91201
:100D3000FB1B1B113C1B5D1B7E0A21184110621816
:100D40008312A518C518E713091909132B1B4B1B90
:100D50006C018D1A2C124D186D108F1AB018D1100D
:100D6000F31B1411351B561B7703981836125818AD
:100D700078129A18BA1ADC10FD192111421B631B54
:100D80008400251A441265188512A718C71AC910BD
:100D9000EA190B132D194D1B6F09901A30125118B7
:100DA0007112931AB318D412F6191611381B591967
:100DB0007A039C183A125C187C129E1ABE1AE21131
:100DC000031B2411451B661987022918471269184D
:100DD00089128B18AB1ACD12EE190E133019501B55
:100DE0007201931A3210531A7410951AB618D7124A
:100DF000F91919133B1B5B197C0B9E183D12611AE4
:100E00008210A318C41AE611071B2813491B69197D
:100E10008A022C1A4A106B186C128E18AE18D01257
:100E2000F2191213341B541B7501961A35125618F9
:100E30007610981AB918DA10FC1B1D11411B611BA2
:100E40008302241A4210631A8410A51AC618E710E8
:100E5000E91B0A112B1B4C196D0B8F1A2E124F1800
:100E60006F129118B11AD310F41915133719571BB3
:100E700079019A1A39125A187A129C1ABC18DD1381
:100E8000021922134419641B8600271A4610671A98
:100E90008812A918A91ACB10EC1B0D112E1B4F1983
:100EA000700392183012521872129418B41AD61293
:100EB000F71917133919591B7B099C1A3C105D1A35
:100EC0007E10A21AC31AE411051B26134719671BCB
:100ED00089002A1A49106A1A8B108C18AD1ACF1083
:100EE000F01B1113321B5219730395183312551846
:100EF00075129718B718D912FB191B133D195D1BF2
:100F00008102221A3E1262188212A418C418E61333
:100F1000081908132A194A1B6C0B8D1A2C104D1A2C
:100F20006E108F1AB018D110F31B14113519561BFF
:100F30007803991A3710581A79129A18BA1ADC10CD
:100F4000FD1921114219631B850226184412661AE5
:100F50008610A71AC818C912EB190B132D194D1BAF
:100F60006F01901A2F10501A7110921AB31AD410E0
:100F7000F51B1611371B5819790B9B183A125C1880
:100F80007C129E18C118E213041B2411451B66191C
:100F9000870229184712691889108B1AAC18CD12CC
:100FA000EF1B0F11301B511B7201931A3210531A91
:100FB00074109518B61AD810F91B1A113B1B5C1B3C
:100FC0007D039E183C125E188110A218C31AE51109
:100FD000061B2711481B691B8A0A2B184A126C181A
:100FE0006C128E18AE18D010F21B1311341B551B47
:100FF000760397183512571A7710981AB918DA101D
:10100000FC1B1D11411B621B8300241A4312641830
:101010008412A618C61AE810E91B0A112B194C1BDA
:101020006E038F182D124F1A6F10901AB118D2122A
:10103000F41914133619561B7809991A39105A1ACB
:101040007B109C1ABD1ADE13021922134419641B6B
:1010500086002718461268188812AA1AAA18CB12F6
:10106000ED190D132F1B4F19700392183010521ADF
:101070007310941AB518D612F81B1811391B5A1B85
:101080007B019C1A3B105C1A7D10A11AC218E31355
:1010900005192513471B671B8808291A49106A1A66
:1010A0008B108C18AD18CF12F1191113331B531B71
:1010B0007401951A3412551875129718B718D9106B
:1010C000FB1B1C113D1B5E1B8102231A411262187F
:1010D0008212A418C418E613081908112A1B4B1908
:1010E0006C038E1A2C124D186D128F18AF1AD11076
:1010F000F21B13113419551B7709981A3812591815
:1011000079129B1ABB18DC12FE1921114219631BBC
:101110008500261A4510661A8712A818C81ACA121E
:10112000EB190B132D194D1B6F0190182F1251182D
:1011300071129318B31AD512F6191613381B5819D1
:1011400079039B1839105B1A7C109D1ABE1AE211A4
:10115000031B2413451B6519860A281847126918B2
:1011600089108B1AAC18CD10EF1B1013311B5119BD
:101170007203941A3210531A74109518B618D812B4
:10118000FA191A133C1B5C197D02211A3D125E18D4
:101190008110A218C318E513071927134919691BF1
:1011A0008B022C1A4A104B1A6C108D1AAE18CF10E5
:0711B000F11B1211331B5467
:00000001FF
