:04089200416C6F0046
:10084D001208687BFF7A08799212082D12089640DB
:0B085D00F212088D8F0812088580F150
:10086800C29FD29E758920758DFDD28ED299D29C59
:01087800225D
:080885003099FDC2998F992200
:06082D008B098A0A890B09
:10083300E4FEAB09AA0AA90B8E8275830012080095
:09084300FF60061208850E80E931
:01084C002289
:03089600A2982203
:05088D00C298AF9922A2
:030000000208797A
:0C087900787FE4F6D8FD75810B02084D75
:10080000BB010CE58229F582E5833AF583E02250AD
:1008100006E92582F8E622BBFE06E92582F8E222F7
:0D082000E58229F582E5833AF583E4932211
:00000001FF
