:03000000020936BC
:100800005389F043890112089EEF70FA7FCC1208D9
:10081000F77F441208F77FEE7E0212087E12089ED0
:10082000EF70FA7FCC1208F77FBE1208F71208BDEE
:100830007508008F091208BDEFFEEE4208E508C4F6
:10084000F854F0C8E509C4540F48FD75F00A84F95E
:10085000ED75F00A84ACF0E509540F75F00AA4FFB9
:10086000E5F0C4F854F0C8EFC4540F48FFE990090C
:100870005693F580EC93F5A0EF93F5B08088E4FDF6
:10088000FCC3ED9FEC9E5015E4FBFA0BBB00010A84
:10089000EB647C4A70F50DBD00010C80E422C2902F
:1008A0007FE07E011208E2D2907F461E1208E2A28B
:1008B00090E433FD7F9A0E1208E2AF05227C08E433
:1008C000FBAF041CEF6012EBC313FB12090FEFC464
:1008D0003333335480420380E8AF0322C2907F0653
:1008E0007E00C3E49FFFE49EF58CEFF58AD28C3046
:1008F0008DFDC28CC28D22AD077C08AF041CEF6059
:100900000DED5401FF12094CEDC313FD80ED2212D1
:1009100008DCD2907F091208E2A290E433FD7F3711
:100920001208E2AF0522C2907F3C7E001208E2D29C
:10093000907F0A0208E2787FE4F6D8FD758109020B
:1009400008001208DCD2907F400208E2BF010302D7
:10095000094212092622C0F9A4B0999282F8809027
:00000001FF
