:0300000002087D76
:10080000AB07AA06C2A37F06120846D2A3C2A37FE3
:1008100002120846AF02120846AF03120846AF059F
:10082000120846D2A322E4FDFCC3ED9FEC9E5015B6
:10083000E4FBFA0BBB00010AEB647B4A70F50DBDCB
:1008400000010C80E422E4FEEF30E004D2A180023B
:10085000C2A1D2A0C2A0EF25E0FF0EBE08EA22E4AA
:10086000FED2A030A203430701C2A00EBE08F222AE
:100870001208897D55E4FFFE12080080FE787FE4AF
:10088000F6D8FD758107020870D2A3C2A0D2A222B9
:00000001FF
