:100851001208D57D55E4FFFE1208007D017F017E5F
:0E08610000120800E4FFFE12086F8F9080FE68
:100800008E088F098D0AC2A37F0612088AD2A3C25E
:10081000A37F0212088AE508FF12088AAF09E509DA
:1008200012088AAF0A12088AD2A31208B8EF70FA27
:0108300022A5
:0708D500D2A3C2A0D2A222AF
:1008A300E4FEEF25E0FFD2A030A203430701C2A07C
:0408B3000EBE08EE7F
:0108B700221E
:10088A00E4FEEF30E704D2A18002C2A1D2A0EF2594
:08089A00E0FFC2A00EBE08EA57
:0108A2002233
:04086F00AD07AC061F
:10087300C2A37F0312088AAF0412088AAF051208C5
:060883008A1208A3D2A3B3
:01088900224C
:1008B800C2A37F0512088A1208A3D2A3EF5401FF2E
:0108C800220D
:10083100E4FDFCC3ED9FEC9E5015E4FBFA0BBB00FD
:0F084100010AEB647B4A70F50DBD00010C80E4E9
:010850002285
:030000000208C92A
:0C08C900787FE4F6D8FD75810A02085122
:00000001FF
